{
  "_format": "hh-sol-artifact-1",
  "contractName": "Facuet",
  "sourceName": "contracts/faucet.sol",
  "abi": [
    {
      "inputs": [
        {
          "internalType": "address",
          "name": "tokenAddress",
          "type": "address"
        }
      ],
      "stateMutability": "nonpayable",
      "type": "constructor"
    },
    {
      "inputs": [],
      "name": "getBalance",
      "outputs": [
        {
          "internalType": "uint256",
          "name": "",
          "type": "uint256"
        }
      ],
      "stateMutability": "view",
      "type": "function"
    },
    {
      "inputs": [
        {
          "internalType": "address payable",
          "name": "_to",
          "type": "address"
        }
      ],
      "name": "request",
      "outputs": [],
      "stateMutability": "nonpayable",
      "type": "function"
    },
    {
      "inputs": [
        {
          "internalType": "address",
          "name": "_receiver",
          "type": "address"
        },
        {
          "internalType": "uint256",
          "name": "_amount",
          "type": "uint256"
        }
      ],
      "name": "withdrawTokens",
      "outputs": [],
      "stateMutability": "nonpayable",
      "type": "function"
    }
  ],
  "bytecode": "0x6080604052606460025534801561001557600080fd5b50604051610c7a380380610c7a833981810160405281019061003791906100e1565b80600160006101000a81548173ffffffffffffffffffffffffffffffffffffffff021916908373ffffffffffffffffffffffffffffffffffffffff1602179055505061010e565b600080fd5b600073ffffffffffffffffffffffffffffffffffffffff82169050919050565b60006100ae82610083565b9050919050565b6100be816100a3565b81146100c957600080fd5b50565b6000815190506100db816100b5565b92915050565b6000602082840312156100f7576100f661007e565b5b6000610105848285016100cc565b91505092915050565b610b5d8061011d6000396000f3fe608060405234801561001057600080fd5b50600436106100415760003560e01c806306b091f91461004657806312065fe01461006257806327c78c4214610080575b600080fd5b610060600480360381019061005b919061068a565b61009c565b005b61006a6102cb565b60405161007791906106d9565b60405180910390f35b61009a60048036038101906100959190610732565b61037d565b005b60008054906101000a900473ffffffffffffffffffffffffffffffffffffffff1673ffffffffffffffffffffffffffffffffffffffff163373ffffffffffffffffffffffffffffffffffffffff161461012a576040517f08c379a0000000000000000000000000000000000000000000000000000000008152600401610121906107bc565b60405180910390fd5b80600160009054906101000a900473ffffffffffffffffffffffffffffffffffffffff1673ffffffffffffffffffffffffffffffffffffffff166370a08231306040518263ffffffff1660e01b815260040161018691906107eb565b60206040518083038186803b15801561019e57600080fd5b505afa1580156101b2573d6000803e3d6000fd5b505050506040513d601f19601f820116820180604052508101906101d6919061081b565b1015610217576040517f08c379a000000000000000000000000000000000000000000000000000000000815260040161020e90610894565b60405180910390fd5b600160009054906101000a900473ffffffffffffffffffffffffffffffffffffffff1673ffffffffffffffffffffffffffffffffffffffff1663a9059cbb83836040518363ffffffff1660e01b81526004016102749291906108b4565b602060405180830381600087803b15801561028e57600080fd5b505af11580156102a2573d6000803e3d6000fd5b505050506040513d601f19601f820116820180604052508101906102c69190610915565b505050565b6000600160009054906101000a900473ffffffffffffffffffffffffffffffffffffffff1673ffffffffffffffffffffffffffffffffffffffff166370a08231306040518263ffffffff1660e01b815260040161032891906107eb565b60206040518083038186803b15801561034057600080fd5b505afa158015610354573d6000803e3d6000fd5b505050506040513d601f19601f82011682018060405250810190610378919061081b565b905090565b600a600160009054906101000a900473ffffffffffffffffffffffffffffffffffffffff1673ffffffffffffffffffffffffffffffffffffffff166370a08231306040518263ffffffff1660e01b81526004016103da91906107eb565b60206040518083038186803b1580156103f257600080fd5b505afa158015610406573d6000803e3d6000fd5b505050506040513d601f19601f8201168201806040525081019061042a919061081b565b1161046a576040517f08c379a00000000000000000000000000000000000000000000000000000000081526004016104619061098e565b60405180910390fd5b600360003373ffffffffffffffffffffffffffffffffffffffff1673ffffffffffffffffffffffffffffffffffffffff1681526020019081526020016000205442116104eb576040517f08c379a00000000000000000000000000000000000000000000000000000000081526004016104e2906109fa565b60405180910390fd5b61012c426104f99190610a49565b600360003373ffffffffffffffffffffffffffffffffffffffff1673ffffffffffffffffffffffffffffffffffffffff16815260200190815260200160002081905550600160009054906101000a900473ffffffffffffffffffffffffffffffffffffffff1673ffffffffffffffffffffffffffffffffffffffff1663a9059cbb826002546040518363ffffffff1660e01b815260040161059b929190610afe565b602060405180830381600087803b1580156105b557600080fd5b505af11580156105c9573d6000803e3d6000fd5b505050506040513d601f19601f820116820180604052508101906105ed9190610915565b5050565b600080fd5b600073ffffffffffffffffffffffffffffffffffffffff82169050919050565b6000610621826105f6565b9050919050565b61063181610616565b811461063c57600080fd5b50565b60008135905061064e81610628565b92915050565b6000819050919050565b61066781610654565b811461067257600080fd5b50565b6000813590506106848161065e565b92915050565b600080604083850312156106a1576106a06105f1565b5b60006106af8582860161063f565b92505060206106c085828601610675565b9150509250929050565b6106d381610654565b82525050565b60006020820190506106ee60008301846106ca565b92915050565b60006106ff826105f6565b9050919050565b61070f816106f4565b811461071a57600080fd5b50565b60008135905061072c81610706565b92915050565b600060208284031215610748576107476105f1565b5b60006107568482850161071d565b91505092915050565b600082825260208201905092915050565b7f43616c6c6572204e6f74204f776e657200000000000000000000000000000000600082015250565b60006107a660108361075f565b91506107b182610770565b602082019050919050565b600060208201905081810360008301526107d581610799565b9050919050565b6107e581610616565b82525050565b600060208201905061080060008301846107dc565b92915050565b6000815190506108158161065e565b92915050565b600060208284031215610831576108306105f1565b5b600061083f84828501610806565b91505092915050565b7f496e73756666696369656e742066756e64730000000000000000000000000000600082015250565b600061087e60128361075f565b915061088982610848565b602082019050919050565b600060208201905081810360008301526108ad81610871565b9050919050565b60006040820190506108c960008301856107dc565b6108d660208301846106ca565b9392505050565b60008115159050919050565b6108f2816108dd565b81146108fd57600080fd5b50565b60008151905061090f816108e9565b92915050565b60006020828403121561092b5761092a6105f1565b5b600061093984828501610900565b91505092915050565b7f46617563657420656d7074790000000000000000000000000000000000000000600082015250565b6000610978600c8361075f565b915061098382610942565b602082019050919050565b600060208201905081810360008301526109a78161096b565b9050919050565b7f596f752063616e20666175636574207065722035206d696e7574657300000000600082015250565b60006109e4601c8361075f565b91506109ef826109ae565b602082019050919050565b60006020820190508181036000830152610a13816109d7565b9050919050565b7f4e487b7100000000000000000000000000000000000000000000000000000000600052601160045260246000fd5b6000610a5482610654565b9150610a5f83610654565b9250827fffffffffffffffffffffffffffffffffffffffffffffffffffffffffffffffff03821115610a9457610a93610a1a565b5b828201905092915050565b6000819050919050565b6000610ac4610abf610aba846105f6565b610a9f565b6105f6565b9050919050565b6000610ad682610aa9565b9050919050565b6000610ae882610acb565b9050919050565b610af881610add565b82525050565b6000604082019050610b136000830185610aef565b610b2060208301846106ca565b939250505056fea2646970667358221220203f7d92321671da47e5bccf3f0e67b5f12b9b8a49d36da3c273c133a818831d64736f6c63430008090033",
  "linkReferences": {},
  "deployedLinkReferences": {}
}